{
  "_format": "hh-sol-artifact-1",
  "contractName": "Vaultio",
  "sourceName": "contracts/Vaultio.sol",
  "abi": [
    {
      "inputs": [],
      "name": "InsufficientTokenAllowance",
      "type": "error"
    },
    {
      "inputs": [],
      "name": "InsufficientTokenBalance",
      "type": "error"
    },
    {
      "inputs": [],
      "name": "InvalidAmount",
      "type": "error"
    },
    {
      "inputs": [],
      "name": "InvalidDuration",
      "type": "error"
    },
    {
      "inputs": [],
      "name": "InvalidLockId",
      "type": "error"
    },
    {
      "inputs": [],
      "name": "InvalidTokenAddress",
      "type": "error"
    },
    {
      "inputs": [],
      "name": "LockPeriodNotExpired",
      "type": "error"
    },
    {
      "inputs": [
        {
          "internalType": "address",
          "name": "token",
          "type": "address"
        }
      ],
      "name": "SafeERC20FailedOperation",
      "type": "error"
    },
    {
      "inputs": [],
      "name": "TokensAlreadyWithdrawn",
      "type": "error"
    },
    {
      "anonymous": false,
      "inputs": [
        {
          "indexed": true,
          "internalType": "address",
          "name": "user",
          "type": "address"
        },
        {
          "indexed": true,
          "internalType": "address",
          "name": "token",
          "type": "address"
        },
        {
          "indexed": true,
          "internalType": "uint256",
          "name": "lockId",
          "type": "uint256"
        },
        {
          "indexed": false,
          "internalType": "uint256",
          "name": "amount",
          "type": "uint256"
        },
        {
          "indexed": false,
          "internalType": "uint256",
          "name": "unlockTime",
          "type": "uint256"
        }
      ],
      "name": "TokenLocked",
      "type": "event"
    },
    {
      "anonymous": false,
      "inputs": [
        {
          "indexed": true,
          "internalType": "address",
          "name": "user",
          "type": "address"
        },
        {
          "indexed": true,
          "internalType": "address",
          "name": "token",
          "type": "address"
        },
        {
          "indexed": true,
          "internalType": "uint256",
          "name": "lockId",
          "type": "uint256"
        },
        {
          "indexed": false,
          "internalType": "uint256",
          "name": "amount",
          "type": "uint256"
        }
      ],
      "name": "TokenWithdrawn",
      "type": "event"
    },
    {
      "inputs": [
        {
          "internalType": "address",
          "name": "user",
          "type": "address"
        },
        {
          "internalType": "uint256",
          "name": "lockId",
          "type": "uint256"
        }
      ],
      "name": "getLock",
      "outputs": [
        {
          "components": [
            {
              "internalType": "address",
              "name": "token",
              "type": "address"
            },
            {
              "internalType": "uint256",
              "name": "amount",
              "type": "uint256"
            },
            {
              "internalType": "uint256",
              "name": "startTime",
              "type": "uint256"
            },
            {
              "internalType": "uint256",
              "name": "unlockTime",
              "type": "uint256"
            },
            {
              "internalType": "bool",
              "name": "withdrawn",
              "type": "bool"
            }
          ],
          "internalType": "struct Vaultio.Lock",
          "name": "",
          "type": "tuple"
        }
      ],
      "stateMutability": "view",
      "type": "function"
    },
    {
      "inputs": [
        {
          "internalType": "address",
          "name": "user",
          "type": "address"
        }
      ],
      "name": "getUserLockCount",
      "outputs": [
        {
          "internalType": "uint256",
          "name": "",
          "type": "uint256"
        }
      ],
      "stateMutability": "view",
      "type": "function"
    },
    {
      "inputs": [
        {
          "internalType": "address",
          "name": "user",
          "type": "address"
        }
      ],
      "name": "getUserLocks",
      "outputs": [
        {
          "components": [
            {
              "internalType": "address",
              "name": "token",
              "type": "address"
            },
            {
              "internalType": "uint256",
              "name": "amount",
              "type": "uint256"
            },
            {
              "internalType": "uint256",
              "name": "startTime",
              "type": "uint256"
            },
            {
              "internalType": "uint256",
              "name": "unlockTime",
              "type": "uint256"
            },
            {
              "internalType": "bool",
              "name": "withdrawn",
              "type": "bool"
            }
          ],
          "internalType": "struct Vaultio.Lock[]",
          "name": "",
          "type": "tuple[]"
        }
      ],
      "stateMutability": "view",
      "type": "function"
    },
    {
      "inputs": [
        {
          "internalType": "address",
          "name": "user",
          "type": "address"
        },
        {
          "internalType": "uint256",
          "name": "lockId",
          "type": "uint256"
        }
      ],
      "name": "isWithdrawable",
      "outputs": [
        {
          "internalType": "bool",
          "name": "",
          "type": "bool"
        }
      ],
      "stateMutability": "view",
      "type": "function"
    },
    {
      "inputs": [
        {
          "internalType": "address",
          "name": "token",
          "type": "address"
        },
        {
          "internalType": "uint256",
          "name": "amount",
          "type": "uint256"
        },
        {
          "internalType": "uint256",
          "name": "durationInMinutes",
          "type": "uint256"
        }
      ],
      "name": "lockTokens",
      "outputs": [
        {
          "internalType": "uint256",
          "name": "lockId",
          "type": "uint256"
        }
      ],
      "stateMutability": "nonpayable",
      "type": "function"
    },
    {
      "inputs": [
        {
          "internalType": "uint256",
          "name": "lockId",
          "type": "uint256"
        }
      ],
      "name": "withdrawTokens",
      "outputs": [],
      "stateMutability": "nonpayable",
      "type": "function"
    }
  ],
  "bytecode": "0x6080604052348015600f57600080fd5b50610a9a8061001f6000396000f3fe608060405234801561001057600080fd5b50600436106100625760003560e01c80631208a2561461006757806323a35de914610090578063315a095d146100b05780639b7d02ad146100c5578063a25983e5146100fc578063a8b0d0611461010f575b600080fd5b61007a6100753660046108b6565b610132565b6040516100879190610918565b60405180910390f35b6100a361009e366004610926565b610233565b6040516100879190610948565b6100c36100be366004610996565b6102e0565b005b6100ee6100d3366004610926565b6001600160a01b031660009081526020819052604090205490565b604051908152602001610087565b6100ee61010a3660046109af565b61040d565b61012261011d3660046108b6565b6106bb565b6040519015158152602001610087565b61016f6040518060a0016040528060006001600160a01b031681526020016000815260200160008152602001600081526020016000151581525090565b6001600160a01b03831660009081526020819052604090205482106101a75760405163aefe60c360e01b815260040160405180910390fd5b6001600160a01b03831660009081526020819052604090208054839081106101d1576101d16109e2565b60009182526020918290206040805160a081018252600590930290910180546001600160a01b031683526001810154938301939093526002830154908201526003820154606082015260049091015460ff161515608082015290505b92915050565b6001600160a01b038116600090815260208181526040808320805482518185028101850190935280835260609492939192909184015b828210156102d55760008481526020908190206040805160a0810182526005860290920180546001600160a01b0316835260018082015484860152600282015492840192909252600381015460608401526004015460ff16151560808301529083529092019101610269565b505050509050919050565b33600090815260208190526040902054811061030f5760405163aefe60c360e01b815260040160405180910390fd5b336000908152602081905260408120805483908110610330576103306109e2565b60009182526020909120600590910201600481015490915060ff1615610369576040516301e31aa960e61b815260040160405180910390fd5b806003015442101561038e57604051633d65368d60e21b815260040160405180910390fd5b60048101805460ff1916600190811790915581015481546001600160a01b03166103b9813384610782565b83816001600160a01b0316336001600160a01b03167f7a163cc3488948c84f02deddd608c9465235f04837413e5f1051007d0da746d2856040516103ff91815260200190565b60405180910390a450505050565b60006001600160a01b03841661043657604051630f58058360e11b815260040160405180910390fd5b826000036104575760405163162908e360e11b815260040160405180910390fd5b8160000361047857604051637616640160e01b815260040160405180910390fd5b6040516370a0823160e01b8152336004820152849084906001600160a01b038316906370a0823190602401602060405180830381865afa1580156104c0573d6000803e3d6000fd5b505050506040513d601f19601f820116820180604052508101906104e491906109f8565b101561050357604051637222ae5760e11b815260040160405180910390fd5b604051636eb1769f60e11b815233600482015230602482015284906001600160a01b0383169063dd62ed3e90604401602060405180830381865afa15801561054f573d6000803e3d6000fd5b505050506040513d601f19601f8201168201806040525081019061057391906109f8565b10156105925760405163a085b77b60e01b815260040160405180910390fd5b600061059f84603c610a27565b6105a99042610a3e565b6040805160a0810182526001600160a01b03898116825260208083018a81524284860190815260608501878152600060808701818152338083528287529882208054600180820183558285529784208a5160059092020180546001600160a01b03191691909916178855945187870155925160028701559051600386015590516004909401805460ff191694151594909417909355939091529154929350916106529190610a51565b93506106696001600160a01b0384163330896107e6565b604080518781526020810184905285916001600160a01b038a169133917f6edd85519fe7bf8ae3e7c89e6378ac3a3a4c787c65e56793bf70c12fafffb158910160405180910390a45050509392505050565b6001600160a01b03821660009081526020819052604081205482106106e25750600061022d565b6001600160a01b038316600090815260208190526040812080548490811061070c5761070c6109e2565b60009182526020918290206040805160a081018252600590930290910180546001600160a01b031683526001810154938301939093526002830154908201526003820154606082015260049091015460ff16158015608083018190529192509061077a575080606001514210155b949350505050565b6040516001600160a01b038381166024830152604482018390526107e191859182169063a9059cbb906064015b604051602081830303815290604052915060e01b6020820180516001600160e01b038381831617835250505050610825565b505050565b6040516001600160a01b03848116602483015283811660448301526064820183905261081f9186918216906323b872dd906084016107af565b50505050565b600080602060008451602086016000885af180610848576040513d6000823e3d81fd5b50506000513d9150811561086057806001141561086d565b6001600160a01b0384163b155b1561081f57604051635274afe760e01b81526001600160a01b038516600482015260240160405180910390fd5b80356001600160a01b03811681146108b157600080fd5b919050565b600080604083850312156108c957600080fd5b6108d28361089a565b946020939093013593505050565b80516001600160a01b031682526020808201519083015260408082015190830152606080820151908301526080908101511515910152565b60a0810161022d82846108e0565b60006020828403121561093857600080fd5b6109418261089a565b9392505050565b602080825282518282018190526000918401906040840190835b8181101561098b576109758385516108e0565b6020939093019260a09290920191600101610962565b509095945050505050565b6000602082840312156109a857600080fd5b5035919050565b6000806000606084860312156109c457600080fd5b6109cd8461089a565b95602085013595506040909401359392505050565b634e487b7160e01b600052603260045260246000fd5b600060208284031215610a0a57600080fd5b5051919050565b634e487b7160e01b600052601160045260246000fd5b808202811582820484141761022d5761022d610a11565b8082018082111561022d5761022d610a11565b8181038181111561022d5761022d610a1156fea2646970667358221220234ce50cab56fc07fdf1bc74904cddc0becabb39a441eb34e33d45975f384a7064736f6c634300081c0033",
  "linkReferences": {},
  "deployedLinkReferences": {}
}